{"contracts/VotingSystem.sol":{"VotingSystem":{"abi":[{"inputs":[{"internalType":"string[]","name":"candidateNames","type":"string[]"}],"stateMutability":"nonpayable","type":"constructor"},{"anonymous":false,"inputs":[{"indexed":false,"internalType":"uint256","name":"candidateIndex","type":"uint256"},{"indexed":false,"internalType":"address","name":"voter","type":"address"}],"name":"Voted","type":"event"},{"inputs":[{"internalType":"uint256","name":"","type":"uint256"}],"name":"candidates","outputs":[{"internalType":"string","name":"name","type":"string"},{"internalType":"uint256","name":"voteCount","type":"uint256"}],"stateMutability":"view","type":"function"},{"inputs":[{"internalType":"uint256","name":"index","type":"uint256"}],"name":"getCandidate","outputs":[{"internalType":"string","name":"","type":"string"},{"internalType":"uint256","name":"","type":"uint256"}],"stateMutability":"view","type":"function"},{"inputs":[],"name":"getCandidateCount","outputs":[{"internalType":"uint256","name":"","type":"uint256"}],"stateMutability":"view","type":"function"},{"inputs":[],"name":"getCandidates","outputs":[{"components":[{"internalType":"string","name":"name","type":"string"},{"internalType":"uint256","name":"voteCount","type":"uint256"}],"internalType":"struct VotingSystem.Candidate[]","name":"","type":"tuple[]"}],"stateMutability":"view","type":"function"},{"inputs":[{"internalType":"address","name":"","type":"address"}],"name":"hasVoted","outputs":[{"internalType":"bool","name":"","type":"bool"}],"stateMutability":"view","type":"function"},{"inputs":[],"name":"owner","outputs":[{"internalType":"address","name":"","type":"address"}],"stateMutability":"view","type":"function"},{"inputs":[{"internalType":"uint256","name":"candidateIndex","type":"uint256"}],"name":"vote","outputs":[],"stateMutability":"nonpayable","type":"function"}],"evm":{"bytecode":{"linkReferences":{},"object":"60806040523480156200001157600080fd5b50604051620014b1380380620014b18339818101604052810190620000379190620003b3565b336000806101000a81548173ffffffffffffffffffffffffffffffffffffffff021916908373ffffffffffffffffffffffffffffffffffffffff16021790555060005b81518110156200011c5760016040518060400160405280848481518110620000a757620000a662000404565b5b60200260200101518152602001600081525090806001815401808255809150506001900390600052602060002090600202016000909190919091506000820151816000019081620000f991906200067e565b506020820151816001015550508080620001139062000794565b9150506200007a565b5050620007e1565b6000604051905090565b600080fd5b600080fd5b600080fd5b6000601f19601f8301169050919050565b7f4e487b7100000000000000000000000000000000000000000000000000000000600052604160045260246000fd5b62000188826200013d565b810181811067ffffffffffffffff82111715620001aa57620001a96200014e565b5b80604052505050565b6000620001bf62000124565b9050620001cd82826200017d565b919050565b600067ffffffffffffffff821115620001f057620001ef6200014e565b5b602082029050602081019050919050565b600080fd5b600080fd5b600067ffffffffffffffff8211156200022957620002286200014e565b5b62000234826200013d565b9050602081019050919050565b60005b838110156200026157808201518184015260208101905062000244565b60008484015250505050565b6000620002846200027e846200020b565b620001b3565b905082815260208101848484011115620002a357620002a262000206565b5b620002b084828562000241565b509392505050565b600082601f830112620002d057620002cf62000138565b5b8151620002e28482602086016200026d565b91505092915050565b600062000302620002fc84620001d2565b620001b3565b9050808382526020820190506020840283018581111562000328576200032762000201565b5b835b818110156200037657805167ffffffffffffffff81111562000351576200035062000138565b5b808601620003608982620002b8565b855260208501945050506020810190506200032a565b5050509392505050565b600082601f83011262000398576200039762000138565b5b8151620003aa848260208601620002eb565b91505092915050565b600060208284031215620003cc57620003cb6200012e565b5b600082015167ffffffffffffffff811115620003ed57620003ec62000133565b5b620003fb8482850162000380565b91505092915050565b7f4e487b7100000000000000000000000000000000000000000000000000000000600052603260045260246000fd5b600081519050919050565b7f4e487b7100000000000000000000000000000000000000000000000000000000600052602260045260246000fd5b600060028204905060018216806200048657607f821691505b6020821081036200049c576200049b6200043e565b5b50919050565b60008190508160005260206000209050919050565b60006020601f8301049050919050565b600082821b905092915050565b600060088302620005067fffffffffffffffffffffffffffffffffffffffffffffffffffffffffffffffff82620004c7565b620005128683620004c7565b95508019841693508086168417925050509392505050565b6000819050919050565b6000819050919050565b60006200055f6200055962000553846200052a565b62000534565b6200052a565b9050919050565b6000819050919050565b6200057b836200053e565b620005936200058a8262000566565b848454620004d4565b825550505050565b600090565b620005aa6200059b565b620005b781848462000570565b505050565b5b81811015620005df57620005d3600082620005a0565b600181019050620005bd565b5050565b601f8211156200062e57620005f881620004a2565b6200060384620004b7565b8101602085101562000613578190505b6200062b6200062285620004b7565b830182620005bc565b50505b505050565b600082821c905092915050565b6000620006536000198460080262000633565b1980831691505092915050565b60006200066e838362000640565b9150826002028217905092915050565b620006898262000433565b67ffffffffffffffff811115620006a557620006a46200014e565b5b620006b182546200046d565b620006be828285620005e3565b600060209050601f831160018114620006f65760008415620006e1578287015190505b620006ed858262000660565b8655506200075d565b601f1984166200070686620004a2565b60005b82811015620007305784890151825560018201915060208501945060208101905062000709565b868310156200075057848901516200074c601f89168262000640565b8355505b6001600288020188555050505b505050505050565b7f4e487b7100000000000000000000000000000000000000000000000000000000600052601160045260246000fd5b6000620007a1826200052a565b91507fffffffffffffffffffffffffffffffffffffffffffffffffffffffffffffffff8203620007d657620007d562000765565b5b600182019050919050565b610cc080620007f16000396000f3fe608060405234801561001057600080fd5b506004361061007d5760003560e01c806330a563471161005b57806330a56347146100ec5780633477ee2e1461010a57806335b8e8201461013b5780638da5cb5b1461016c5761007d565b80630121b93f1461008257806306a49fce1461009e57806309eef43e146100bc575b600080fd5b61009c6004803603810190610097919061069b565b61018a565b005b6100a661032d565b6040516100b39190610866565b60405180910390f35b6100d660048036038101906100d191906108e6565b610428565b6040516100e3919061092e565b60405180910390f35b6100f4610448565b6040516101019190610958565b60405180910390f35b610124600480360381019061011f919061069b565b610455565b6040516101329291906109bd565b60405180910390f35b6101556004803603810190610150919061069b565b610511565b6040516101639291906109bd565b60405180910390f35b61017461063c565b60405161018191906109fc565b60405180910390f35b600260003373ffffffffffffffffffffffffffffffffffffffff1673ffffffffffffffffffffffffffffffffffffffff16815260200190815260200160002060009054906101000a900460ff1615610217576040517f08c379a000000000000000000000000000000000000000000000000000000000815260040161020e90610a63565b60405180910390fd5b600180549050811061025e576040517f08c379a000000000000000000000000000000000000000000000000000000000815260040161025590610acf565b60405180910390fd5b6001818154811061027257610271610aef565b5b9060005260206000209060020201600101600081548092919061029490610b4d565b91905055506001600260003373ffffffffffffffffffffffffffffffffffffffff1673ffffffffffffffffffffffffffffffffffffffff16815260200190815260200160002060006101000a81548160ff0219169083151502179055507f030b0f8dcd86a031eddb071f91882edeac8173663ba775713b677b42b51be44b8133604051610322929190610b95565b60405180910390a150565b60606001805480602002602001604051908101604052809291908181526020016000905b8282101561041f578382906000526020600020906002020160405180604001604052908160008201805461038490610bed565b80601f01602080910402602001604051908101604052809291908181526020018280546103b090610bed565b80156103fd5780601f106103d2576101008083540402835291602001916103fd565b820191906000526020600020905b8154815290600101906020018083116103e057829003601f168201915b5050505050815260200160018201548152505081526020019060010190610351565b50505050905090565b60026020528060005260406000206000915054906101000a900460ff1681565b6000600180549050905090565b6001818154811061046557600080fd5b906000526020600020906002020160009150905080600001805461048890610bed565b80601f01602080910402602001604051908101604052809291908181526020018280546104b490610bed565b80156105015780601f106104d657610100808354040283529160200191610501565b820191906000526020600020905b8154815290600101906020018083116104e457829003601f168201915b5050505050908060010154905082565b60606000600180549050831061055c576040517f08c379a000000000000000000000000000000000000000000000000000000000815260040161055390610c6a565b60405180910390fd5b600183815481106105705761056f610aef565b5b90600052602060002090600202016000016001848154811061059557610594610aef565b5b9060005260206000209060020201600101548180546105b390610bed565b80601f01602080910402602001604051908101604052809291908181526020018280546105df90610bed565b801561062c5780601f106106015761010080835404028352916020019161062c565b820191906000526020600020905b81548152906001019060200180831161060f57829003601f168201915b5050505050915091509150915091565b60008054906101000a900473ffffffffffffffffffffffffffffffffffffffff1681565b600080fd5b6000819050919050565b61067881610665565b811461068357600080fd5b50565b6000813590506106958161066f565b92915050565b6000602082840312156106b1576106b0610660565b5b60006106bf84828501610686565b91505092915050565b600081519050919050565b600082825260208201905092915050565b6000819050602082019050919050565b600081519050919050565b600082825260208201905092915050565b60005b8381101561072e578082015181840152602081019050610713565b60008484015250505050565b6000601f19601f8301169050919050565b6000610756826106f4565b61076081856106ff565b9350610770818560208601610710565b6107798161073a565b840191505092915050565b61078d81610665565b82525050565b600060408301600083015184820360008601526107b0828261074b565b91505060208301516107c56020860182610784565b508091505092915050565b60006107dc8383610793565b905092915050565b6000602082019050919050565b60006107fc826106c8565b61080681856106d3565b935083602082028501610818856106e4565b8060005b85811015610854578484038952815161083585826107d0565b9450610840836107e4565b925060208a0199505060018101905061081c565b50829750879550505050505092915050565b6000602082019050818103600083015261088081846107f1565b905092915050565b600073ffffffffffffffffffffffffffffffffffffffff82169050919050565b60006108b382610888565b9050919050565b6108c3816108a8565b81146108ce57600080fd5b50565b6000813590506108e0816108ba565b92915050565b6000602082840312156108fc576108fb610660565b5b600061090a848285016108d1565b91505092915050565b60008115159050919050565b61092881610913565b82525050565b6000602082019050610943600083018461091f565b92915050565b61095281610665565b82525050565b600060208201905061096d6000830184610949565b92915050565b600082825260208201905092915050565b600061098f826106f4565b6109998185610973565b93506109a9818560208601610710565b6109b28161073a565b840191505092915050565b600060408201905081810360008301526109d78185610984565b90506109e66020830184610949565b9392505050565b6109f6816108a8565b82525050565b6000602082019050610a1160008301846109ed565b92915050565b7f596f75206861766520616c726561647920766f7465642e000000000000000000600082015250565b6000610a4d601783610973565b9150610a5882610a17565b602082019050919050565b60006020820190508181036000830152610a7c81610a40565b9050919050565b7f496e76616c69642063616e64696461746520696e6465782e0000000000000000600082015250565b6000610ab9601883610973565b9150610ac482610a83565b602082019050919050565b60006020820190508181036000830152610ae881610aac565b9050919050565b7f4e487b7100000000000000000000000000000000000000000000000000000000600052603260045260246000fd5b7f4e487b7100000000000000000000000000000000000000000000000000000000600052601160045260246000fd5b6000610b5882610665565b91507fffffffffffffffffffffffffffffffffffffffffffffffffffffffffffffffff8203610b8a57610b89610b1e565b5b600182019050919050565b6000604082019050610baa6000830185610949565b610bb760208301846109ed565b9392505050565b7f4e487b7100000000000000000000000000000000000000000000000000000000600052602260045260246000fd5b60006002820490506001821680610c0557607f821691505b602082108103610c1857610c17610bbe565b5b50919050565b7f496e636f72726563742063616e64696461746520696e6465782e000000000000600082015250565b6000610c54601a83610973565b9150610c5f82610c1e565b602082019050919050565b60006020820190508181036000830152610c8381610c47565b905091905056fea2646970667358221220daa47bc136c3d7287baa30f468e14e78aea944ef05cc2d863c31cb06795e24fc64736f6c63430008110033","opcodes":"PUSH1 0x80 PUSH1 0x40 MSTORE CALLVALUE DUP1 ISZERO PUSH3 0x11 JUMPI PUSH1 0x0 DUP1 REVERT JUMPDEST POP PUSH1 0x40 MLOAD PUSH3 0x14B1 CODESIZE SUB DUP1 PUSH3 0x14B1 DUP4 CODECOPY DUP2 DUP2 ADD PUSH1 0x40 MSTORE DUP2 ADD SWAP1 PUSH3 0x37 SWAP2 SWAP1 PUSH3 0x3B3 JUMP JUMPDEST CALLER PUSH1 0x0 DUP1 PUSH2 0x100 EXP DUP2 SLOAD DUP2 PUSH20 0xFFFFFFFFFFFFFFFFFFFFFFFFFFFFFFFFFFFFFFFF MUL NOT AND SWAP1 DUP4 PUSH20 0xFFFFFFFFFFFFFFFFFFFFFFFFFFFFFFFFFFFFFFFF AND MUL OR SWAP1 SSTORE POP PUSH1 0x0 JUMPDEST DUP2 MLOAD DUP2 LT ISZERO PUSH3 0x11C JUMPI PUSH1 0x1 PUSH1 0x40 MLOAD DUP1 PUSH1 0x40 ADD PUSH1 0x40 MSTORE DUP1 DUP5 DUP5 DUP2 MLOAD DUP2 LT PUSH3 0xA7 JUMPI PUSH3 0xA6 PUSH3 0x404 JUMP JUMPDEST JUMPDEST PUSH1 0x20 MUL PUSH1 0x20 ADD ADD MLOAD DUP2 MSTORE PUSH1 0x20 ADD PUSH1 0x0 DUP2 MSTORE POP SWAP1 DUP1 PUSH1 0x1 DUP2 SLOAD ADD DUP1 DUP3 SSTORE DUP1 SWAP2 POP POP PUSH1 0x1 SWAP1 SUB SWAP1 PUSH1 0x0 MSTORE PUSH1 0x20 PUSH1 0x0 KECCAK256 SWAP1 PUSH1 0x2 MUL ADD PUSH1 0x0 SWAP1 SWAP2 SWAP1 SWAP2 SWAP1 SWAP2 POP PUSH1 0x0 DUP3 ADD MLOAD DUP2 PUSH1 0x0 ADD SWAP1 DUP2 PUSH3 0xF9 SWAP2 SWAP1 PUSH3 0x67E JUMP JUMPDEST POP PUSH1 0x20 DUP3 ADD MLOAD DUP2 PUSH1 0x1 ADD SSTORE POP POP DUP1 DUP1 PUSH3 0x113 SWAP1 PUSH3 0x794 JUMP JUMPDEST SWAP2 POP POP PUSH3 0x7A JUMP JUMPDEST POP POP PUSH3 0x7E1 JUMP JUMPDEST PUSH1 0x0 PUSH1 0x40 MLOAD SWAP1 POP SWAP1 JUMP JUMPDEST PUSH1 0x0 DUP1 REVERT JUMPDEST PUSH1 0x0 DUP1 REVERT JUMPDEST PUSH1 0x0 DUP1 REVERT JUMPDEST PUSH1 0x0 PUSH1 0x1F NOT PUSH1 0x1F DUP4 ADD AND SWAP1 POP SWAP2 SWAP1 POP JUMP JUMPDEST PUSH32 0x4E487B7100000000000000000000000000000000000000000000000000000000 PUSH1 0x0 MSTORE PUSH1 0x41 PUSH1 0x4 MSTORE PUSH1 0x24 PUSH1 0x0 REVERT JUMPDEST PUSH3 0x188 DUP3 PUSH3 0x13D JUMP JUMPDEST DUP2 ADD DUP2 DUP2 LT PUSH8 0xFFFFFFFFFFFFFFFF DUP3 GT OR ISZERO PUSH3 0x1AA JUMPI PUSH3 0x1A9 PUSH3 0x14E JUMP JUMPDEST JUMPDEST DUP1 PUSH1 0x40 MSTORE POP POP POP JUMP JUMPDEST PUSH1 0x0 PUSH3 0x1BF PUSH3 0x124 JUMP JUMPDEST SWAP1 POP PUSH3 0x1CD DUP3 DUP3 PUSH3 0x17D JUMP JUMPDEST SWAP2 SWAP1 POP JUMP JUMPDEST PUSH1 0x0 PUSH8 0xFFFFFFFFFFFFFFFF DUP3 GT ISZERO PUSH3 0x1F0 JUMPI PUSH3 0x1EF PUSH3 0x14E JUMP JUMPDEST JUMPDEST PUSH1 0x20 DUP3 MUL SWAP1 POP PUSH1 0x20 DUP2 ADD SWAP1 POP SWAP2 SWAP1 POP JUMP JUMPDEST PUSH1 0x0 DUP1 REVERT JUMPDEST PUSH1 0x0 DUP1 REVERT JUMPDEST PUSH1 0x0 PUSH8 0xFFFFFFFFFFFFFFFF DUP3 GT ISZERO PUSH3 0x229 JUMPI PUSH3 0x228 PUSH3 0x14E JUMP JUMPDEST JUMPDEST PUSH3 0x234 DUP3 PUSH3 0x13D JUMP JUMPDEST SWAP1 POP PUSH1 0x20 DUP2 ADD SWAP1 POP SWAP2 SWAP1 POP JUMP JUMPDEST PUSH1 0x0 JUMPDEST DUP4 DUP2 LT ISZERO PUSH3 0x261 JUMPI DUP1 DUP3 ADD MLOAD DUP2 DUP5 ADD MSTORE PUSH1 0x20 DUP2 ADD SWAP1 POP PUSH3 0x244 JUMP JUMPDEST PUSH1 0x0 DUP5 DUP5 ADD MSTORE POP POP POP POP JUMP JUMPDEST PUSH1 0x0 PUSH3 0x284 PUSH3 0x27E DUP5 PUSH3 0x20B JUMP JUMPDEST PUSH3 0x1B3 JUMP JUMPDEST SWAP1 POP DUP3 DUP2 MSTORE PUSH1 0x20 DUP2 ADD DUP5 DUP5 DUP5 ADD GT ISZERO PUSH3 0x2A3 JUMPI PUSH3 0x2A2 PUSH3 0x206 JUMP JUMPDEST JUMPDEST PUSH3 0x2B0 DUP5 DUP3 DUP6 PUSH3 0x241 JUMP JUMPDEST POP SWAP4 SWAP3 POP POP POP JUMP JUMPDEST PUSH1 0x0 DUP3 PUSH1 0x1F DUP4 ADD SLT PUSH3 0x2D0 JUMPI PUSH3 0x2CF PUSH3 0x138 JUMP JUMPDEST JUMPDEST DUP2 MLOAD PUSH3 0x2E2 DUP5 DUP3 PUSH1 0x20 DUP7 ADD PUSH3 0x26D JUMP JUMPDEST SWAP2 POP POP SWAP3 SWAP2 POP POP JUMP JUMPDEST PUSH1 0x0 PUSH3 0x302 PUSH3 0x2FC DUP5 PUSH3 0x1D2 JUMP JUMPDEST PUSH3 0x1B3 JUMP JUMPDEST SWAP1 POP DUP1 DUP4 DUP3 MSTORE PUSH1 0x20 DUP3 ADD SWAP1 POP PUSH1 0x20 DUP5 MUL DUP4 ADD DUP6 DUP2 GT ISZERO PUSH3 0x328 JUMPI PUSH3 0x327 PUSH3 0x201 JUMP JUMPDEST JUMPDEST DUP4 JUMPDEST DUP2 DUP2 LT ISZERO PUSH3 0x376 JUMPI DUP1 MLOAD PUSH8 0xFFFFFFFFFFFFFFFF DUP2 GT ISZERO PUSH3 0x351 JUMPI PUSH3 0x350 PUSH3 0x138 JUMP JUMPDEST JUMPDEST DUP1 DUP7 ADD PUSH3 0x360 DUP10 DUP3 PUSH3 0x2B8 JUMP JUMPDEST DUP6 MSTORE PUSH1 0x20 DUP6 ADD SWAP5 POP POP POP PUSH1 0x20 DUP2 ADD SWAP1 POP PUSH3 0x32A JUMP JUMPDEST POP POP POP SWAP4 SWAP3 POP POP POP JUMP JUMPDEST PUSH1 0x0 DUP3 PUSH1 0x1F DUP4 ADD SLT PUSH3 0x398 JUMPI PUSH3 0x397 PUSH3 0x138 JUMP JUMPDEST JUMPDEST DUP2 MLOAD PUSH3 0x3AA DUP5 DUP3 PUSH1 0x20 DUP7 ADD PUSH3 0x2EB JUMP JUMPDEST SWAP2 POP POP SWAP3 SWAP2 POP POP JUMP JUMPDEST PUSH1 0x0 PUSH1 0x20 DUP3 DUP5 SUB SLT ISZERO PUSH3 0x3CC JUMPI PUSH3 0x3CB PUSH3 0x12E JUMP JUMPDEST JUMPDEST PUSH1 0x0 DUP3 ADD MLOAD PUSH8 0xFFFFFFFFFFFFFFFF DUP2 GT ISZERO PUSH3 0x3ED JUMPI PUSH3 0x3EC PUSH3 0x133 JUMP JUMPDEST JUMPDEST PUSH3 0x3FB DUP5 DUP3 DUP6 ADD PUSH3 0x380 JUMP JUMPDEST SWAP2 POP POP SWAP3 SWAP2 POP POP JUMP JUMPDEST PUSH32 0x4E487B7100000000000000000000000000000000000000000000000000000000 PUSH1 0x0 MSTORE PUSH1 0x32 PUSH1 0x4 MSTORE PUSH1 0x24 PUSH1 0x0 REVERT JUMPDEST PUSH1 0x0 DUP2 MLOAD SWAP1 POP SWAP2 SWAP1 POP JUMP JUMPDEST PUSH32 0x4E487B7100000000000000000000000000000000000000000000000000000000 PUSH1 0x0 MSTORE PUSH1 0x22 PUSH1 0x4 MSTORE PUSH1 0x24 PUSH1 0x0 REVERT JUMPDEST PUSH1 0x0 PUSH1 0x2 DUP3 DIV SWAP1 POP PUSH1 0x1 DUP3 AND DUP1 PUSH3 0x486 JUMPI PUSH1 0x7F DUP3 AND SWAP2 POP JUMPDEST PUSH1 0x20 DUP3 LT DUP2 SUB PUSH3 0x49C JUMPI PUSH3 0x49B PUSH3 0x43E JUMP JUMPDEST JUMPDEST POP SWAP2 SWAP1 POP JUMP JUMPDEST PUSH1 0x0 DUP2 SWAP1 POP DUP2 PUSH1 0x0 MSTORE PUSH1 0x20 PUSH1 0x0 KECCAK256 SWAP1 POP SWAP2 SWAP1 POP JUMP JUMPDEST PUSH1 0x0 PUSH1 0x20 PUSH1 0x1F DUP4 ADD DIV SWAP1 POP SWAP2 SWAP1 POP JUMP JUMPDEST PUSH1 0x0 DUP3 DUP3 SHL SWAP1 POP SWAP3 SWAP2 POP POP JUMP JUMPDEST PUSH1 0x0 PUSH1 0x8 DUP4 MUL PUSH3 0x506 PUSH32 0xFFFFFFFFFFFFFFFFFFFFFFFFFFFFFFFFFFFFFFFFFFFFFFFFFFFFFFFFFFFFFFFF DUP3 PUSH3 0x4C7 JUMP JUMPDEST PUSH3 0x512 DUP7 DUP4 PUSH3 0x4C7 JUMP JUMPDEST SWAP6 POP DUP1 NOT DUP5 AND SWAP4 POP DUP1 DUP7 AND DUP5 OR SWAP3 POP POP POP SWAP4 SWAP3 POP POP POP JUMP JUMPDEST PUSH1 0x0 DUP2 SWAP1 POP SWAP2 SWAP1 POP JUMP JUMPDEST PUSH1 0x0 DUP2 SWAP1 POP SWAP2 SWAP1 POP JUMP JUMPDEST PUSH1 0x0 PUSH3 0x55F PUSH3 0x559 PUSH3 0x553 DUP5 PUSH3 0x52A JUMP JUMPDEST PUSH3 0x534 JUMP JUMPDEST PUSH3 0x52A JUMP JUMPDEST SWAP1 POP SWAP2 SWAP1 POP JUMP JUMPDEST PUSH1 0x0 DUP2 SWAP1 POP SWAP2 SWAP1 POP JUMP JUMPDEST PUSH3 0x57B DUP4 PUSH3 0x53E JUMP JUMPDEST PUSH3 0x593 PUSH3 0x58A DUP3 PUSH3 0x566 JUMP JUMPDEST DUP5 DUP5 SLOAD PUSH3 0x4D4 JUMP JUMPDEST DUP3 SSTORE POP POP POP POP JUMP JUMPDEST PUSH1 0x0 SWAP1 JUMP JUMPDEST PUSH3 0x5AA PUSH3 0x59B JUMP JUMPDEST PUSH3 0x5B7 DUP2 DUP5 DUP5 PUSH3 0x570 JUMP JUMPDEST POP POP POP JUMP JUMPDEST JUMPDEST DUP2 DUP2 LT ISZERO PUSH3 0x5DF JUMPI PUSH3 0x5D3 PUSH1 0x0 DUP3 PUSH3 0x5A0 JUMP JUMPDEST PUSH1 0x1 DUP2 ADD SWAP1 POP PUSH3 0x5BD JUMP JUMPDEST POP POP JUMP JUMPDEST PUSH1 0x1F DUP3 GT ISZERO PUSH3 0x62E JUMPI PUSH3 0x5F8 DUP2 PUSH3 0x4A2 JUMP JUMPDEST PUSH3 0x603 DUP5 PUSH3 0x4B7 JUMP JUMPDEST DUP2 ADD PUSH1 0x20 DUP6 LT ISZERO PUSH3 0x613 JUMPI DUP2 SWAP1 POP JUMPDEST PUSH3 0x62B PUSH3 0x622 DUP6 PUSH3 0x4B7 JUMP JUMPDEST DUP4 ADD DUP3 PUSH3 0x5BC JUMP JUMPDEST POP POP JUMPDEST POP POP POP JUMP JUMPDEST PUSH1 0x0 DUP3 DUP3 SHR SWAP1 POP SWAP3 SWAP2 POP POP JUMP JUMPDEST PUSH1 0x0 PUSH3 0x653 PUSH1 0x0 NOT DUP5 PUSH1 0x8 MUL PUSH3 0x633 JUMP JUMPDEST NOT DUP1 DUP4 AND SWAP2 POP POP SWAP3 SWAP2 POP POP JUMP JUMPDEST PUSH1 0x0 PUSH3 0x66E DUP4 DUP4 PUSH3 0x640 JUMP JUMPDEST SWAP2 POP DUP3 PUSH1 0x2 MUL DUP3 OR SWAP1 POP SWAP3 SWAP2 POP POP JUMP JUMPDEST PUSH3 0x689 DUP3 PUSH3 0x433 JUMP JUMPDEST PUSH8 0xFFFFFFFFFFFFFFFF DUP2 GT ISZERO PUSH3 0x6A5 JUMPI PUSH3 0x6A4 PUSH3 0x14E JUMP JUMPDEST JUMPDEST PUSH3 0x6B1 DUP3 SLOAD PUSH3 0x46D JUMP JUMPDEST PUSH3 0x6BE DUP3 DUP3 DUP6 PUSH3 0x5E3 JUMP JUMPDEST PUSH1 0x0 PUSH1 0x20 SWAP1 POP PUSH1 0x1F DUP4 GT PUSH1 0x1 DUP2 EQ PUSH3 0x6F6 JUMPI PUSH1 0x0 DUP5 ISZERO PUSH3 0x6E1 JUMPI DUP3 DUP8 ADD MLOAD SWAP1 POP JUMPDEST PUSH3 0x6ED DUP6 DUP3 PUSH3 0x660 JUMP JUMPDEST DUP7 SSTORE POP PUSH3 0x75D JUMP JUMPDEST PUSH1 0x1F NOT DUP5 AND PUSH3 0x706 DUP7 PUSH3 0x4A2 JUMP JUMPDEST PUSH1 0x0 JUMPDEST DUP3 DUP2 LT ISZERO PUSH3 0x730 JUMPI DUP5 DUP10 ADD MLOAD DUP3 SSTORE PUSH1 0x1 DUP3 ADD SWAP2 POP PUSH1 0x20 DUP6 ADD SWAP5 POP PUSH1 0x20 DUP2 ADD SWAP1 POP PUSH3 0x709 JUMP JUMPDEST DUP7 DUP4 LT ISZERO PUSH3 0x750 JUMPI DUP5 DUP10 ADD MLOAD PUSH3 0x74C PUSH1 0x1F DUP10 AND DUP3 PUSH3 0x640 JUMP JUMPDEST DUP4 SSTORE POP JUMPDEST PUSH1 0x1 PUSH1 0x2 DUP9 MUL ADD DUP9 SSTORE POP POP POP JUMPDEST POP POP POP POP POP POP JUMP JUMPDEST PUSH32 0x4E487B7100000000000000000000000000000000000000000000000000000000 PUSH1 0x0 MSTORE PUSH1 0x11 PUSH1 0x4 MSTORE PUSH1 0x24 PUSH1 0x0 REVERT JUMPDEST PUSH1 0x0 PUSH3 0x7A1 DUP3 PUSH3 0x52A JUMP JUMPDEST SWAP2 POP PUSH32 0xFFFFFFFFFFFFFFFFFFFFFFFFFFFFFFFFFFFFFFFFFFFFFFFFFFFFFFFFFFFFFFFF DUP3 SUB PUSH3 0x7D6 JUMPI PUSH3 0x7D5 PUSH3 0x765 JUMP JUMPDEST JUMPDEST PUSH1 0x1 DUP3 ADD SWAP1 POP SWAP2 SWAP1 POP JUMP JUMPDEST PUSH2 0xCC0 DUP1 PUSH3 0x7F1 PUSH1 0x0 CODECOPY PUSH1 0x0 RETURN INVALID PUSH1 0x80 PUSH1 0x40 MSTORE CALLVALUE DUP1 ISZERO PUSH2 0x10 JUMPI PUSH1 0x0 DUP1 REVERT JUMPDEST POP PUSH1 0x4 CALLDATASIZE LT PUSH2 0x7D JUMPI PUSH1 0x0 CALLDATALOAD PUSH1 0xE0 SHR DUP1 PUSH4 0x30A56347 GT PUSH2 0x5B JUMPI DUP1 PUSH4 0x30A56347 EQ PUSH2 0xEC JUMPI DUP1 PUSH4 0x3477EE2E EQ PUSH2 0x10A JUMPI DUP1 PUSH4 0x35B8E820 EQ PUSH2 0x13B JUMPI DUP1 PUSH4 0x8DA5CB5B EQ PUSH2 0x16C JUMPI PUSH2 0x7D JUMP JUMPDEST DUP1 PUSH4 0x121B93F EQ PUSH2 0x82 JUMPI DUP1 PUSH4 0x6A49FCE EQ PUSH2 0x9E JUMPI DUP1 PUSH4 0x9EEF43E EQ PUSH2 0xBC JUMPI JUMPDEST PUSH1 0x0 DUP1 REVERT JUMPDEST PUSH2 0x9C PUSH1 0x4 DUP1 CALLDATASIZE SUB DUP2 ADD SWAP1 PUSH2 0x97 SWAP2 SWAP1 PUSH2 0x69B JUMP JUMPDEST PUSH2 0x18A JUMP JUMPDEST STOP JUMPDEST PUSH2 0xA6 PUSH2 0x32D JUMP JUMPDEST PUSH1 0x40 MLOAD PUSH2 0xB3 SWAP2 SWAP1 PUSH2 0x866 JUMP JUMPDEST PUSH1 0x40 MLOAD DUP1 SWAP2 SUB SWAP1 RETURN JUMPDEST PUSH2 0xD6 PUSH1 0x4 DUP1 CALLDATASIZE SUB DUP2 ADD SWAP1 PUSH2 0xD1 SWAP2 SWAP1 PUSH2 0x8E6 JUMP JUMPDEST PUSH2 0x428 JUMP JUMPDEST PUSH1 0x40 MLOAD PUSH2 0xE3 SWAP2 SWAP1 PUSH2 0x92E JUMP JUMPDEST PUSH1 0x40 MLOAD DUP1 SWAP2 SUB SWAP1 RETURN JUMPDEST PUSH2 0xF4 PUSH2 0x448 JUMP JUMPDEST PUSH1 0x40 MLOAD PUSH2 0x101 SWAP2 SWAP1 PUSH2 0x958 JUMP JUMPDEST PUSH1 0x40 MLOAD DUP1 SWAP2 SUB SWAP1 RETURN JUMPDEST PUSH2 0x124 PUSH1 0x4 DUP1 CALLDATASIZE SUB DUP2 ADD SWAP1 PUSH2 0x11F SWAP2 SWAP1 PUSH2 0x69B JUMP JUMPDEST PUSH2 0x455 JUMP JUMPDEST PUSH1 0x40 MLOAD PUSH2 0x132 SWAP3 SWAP2 SWAP1 PUSH2 0x9BD JUMP JUMPDEST PUSH1 0x40 MLOAD DUP1 SWAP2 SUB SWAP1 RETURN JUMPDEST PUSH2 0x155 PUSH1 0x4 DUP1 CALLDATASIZE SUB DUP2 ADD SWAP1 PUSH2 0x150 SWAP2 SWAP1 PUSH2 0x69B JUMP JUMPDEST PUSH2 0x511 JUMP JUMPDEST PUSH1 0x40 MLOAD PUSH2 0x163 SWAP3 SWAP2 SWAP1 PUSH2 0x9BD JUMP JUMPDEST PUSH1 0x40 MLOAD DUP1 SWAP2 SUB SWAP1 RETURN JUMPDEST PUSH2 0x174 PUSH2 0x63C JUMP JUMPDEST PUSH1 0x40 MLOAD PUSH2 0x181 SWAP2 SWAP1 PUSH2 0x9FC JUMP JUMPDEST PUSH1 0x40 MLOAD DUP1 SWAP2 SUB SWAP1 RETURN JUMPDEST PUSH1 0x2 PUSH1 0x0 CALLER PUSH20 0xFFFFFFFFFFFFFFFFFFFFFFFFFFFFFFFFFFFFFFFF AND PUSH20 0xFFFFFFFFFFFFFFFFFFFFFFFFFFFFFFFFFFFFFFFF AND DUP2 MSTORE PUSH1 0x20 ADD SWAP1 DUP2 MSTORE PUSH1 0x20 ADD PUSH1 0x0 KECCAK256 PUSH1 0x0 SWAP1 SLOAD SWAP1 PUSH2 0x100 EXP SWAP1 DIV PUSH1 0xFF AND ISZERO PUSH2 0x217 JUMPI PUSH1 0x40 MLOAD PUSH32 0x8C379A000000000000000000000000000000000000000000000000000000000 DUP2 MSTORE PUSH1 0x4 ADD PUSH2 0x20E SWAP1 PUSH2 0xA63 JUMP JUMPDEST PUSH1 0x40 MLOAD DUP1 SWAP2 SUB SWAP1 REVERT JUMPDEST PUSH1 0x1 DUP1 SLOAD SWAP1 POP DUP2 LT PUSH2 0x25E JUMPI PUSH1 0x40 MLOAD PUSH32 0x8C379A000000000000000000000000000000000000000000000000000000000 DUP2 MSTORE PUSH1 0x4 ADD PUSH2 0x255 SWAP1 PUSH2 0xACF JUMP JUMPDEST PUSH1 0x40 MLOAD DUP1 SWAP2 SUB SWAP1 REVERT JUMPDEST PUSH1 0x1 DUP2 DUP2 SLOAD DUP2 LT PUSH2 0x272 JUMPI PUSH2 0x271 PUSH2 0xAEF JUMP JUMPDEST JUMPDEST SWAP1 PUSH1 0x0 MSTORE PUSH1 0x20 PUSH1 0x0 KECCAK256 SWAP1 PUSH1 0x2 MUL ADD PUSH1 0x1 ADD PUSH1 0x0 DUP2 SLOAD DUP1 SWAP3 SWAP2 SWAP1 PUSH2 0x294 SWAP1 PUSH2 0xB4D JUMP JUMPDEST SWAP2 SWAP1 POP SSTORE POP PUSH1 0x1 PUSH1 0x2 PUSH1 0x0 CALLER PUSH20 0xFFFFFFFFFFFFFFFFFFFFFFFFFFFFFFFFFFFFFFFF AND PUSH20 0xFFFFFFFFFFFFFFFFFFFFFFFFFFFFFFFFFFFFFFFF AND DUP2 MSTORE PUSH1 0x20 ADD SWAP1 DUP2 MSTORE PUSH1 0x20 ADD PUSH1 0x0 KECCAK256 PUSH1 0x0 PUSH2 0x100 EXP DUP2 SLOAD DUP2 PUSH1 0xFF MUL NOT AND SWAP1 DUP4 ISZERO ISZERO MUL OR SWAP1 SSTORE POP PUSH32 0x30B0F8DCD86A031EDDB071F91882EDEAC8173663BA775713B677B42B51BE44B DUP2 CALLER PUSH1 0x40 MLOAD PUSH2 0x322 SWAP3 SWAP2 SWAP1 PUSH2 0xB95 JUMP JUMPDEST PUSH1 0x40 MLOAD DUP1 SWAP2 SUB SWAP1 LOG1 POP JUMP JUMPDEST PUSH1 0x60 PUSH1 0x1 DUP1 SLOAD DUP1 PUSH1 0x20 MUL PUSH1 0x20 ADD PUSH1 0x40 MLOAD SWAP1 DUP2 ADD PUSH1 0x40 MSTORE DUP1 SWAP3 SWAP2 SWAP1 DUP2 DUP2 MSTORE PUSH1 0x20 ADD PUSH1 0x0 SWAP1 JUMPDEST DUP3 DUP3 LT ISZERO PUSH2 0x41F JUMPI DUP4 DUP3 SWAP1 PUSH1 0x0 MSTORE PUSH1 0x20 PUSH1 0x0 KECCAK256 SWAP1 PUSH1 0x2 MUL ADD PUSH1 0x40 MLOAD DUP1 PUSH1 0x40 ADD PUSH1 0x40 MSTORE SWAP1 DUP2 PUSH1 0x0 DUP3 ADD DUP1 SLOAD PUSH2 0x384 SWAP1 PUSH2 0xBED JUMP JUMPDEST DUP1 PUSH1 0x1F ADD PUSH1 0x20 DUP1 SWAP2 DIV MUL PUSH1 0x20 ADD PUSH1 0x40 MLOAD SWAP1 DUP2 ADD PUSH1 0x40 MSTORE DUP1 SWAP3 SWAP2 SWAP1 DUP2 DUP2 MSTORE PUSH1 0x20 ADD DUP3 DUP1 SLOAD PUSH2 0x3B0 SWAP1 PUSH2 0xBED JUMP JUMPDEST DUP1 ISZERO PUSH2 0x3FD JUMPI DUP1 PUSH1 0x1F LT PUSH2 0x3D2 JUMPI PUSH2 0x100 DUP1 DUP4 SLOAD DIV MUL DUP4 MSTORE SWAP2 PUSH1 0x20 ADD SWAP2 PUSH2 0x3FD JUMP JUMPDEST DUP3 ADD SWAP2 SWAP1 PUSH1 0x0 MSTORE PUSH1 0x20 PUSH1 0x0 KECCAK256 SWAP1 JUMPDEST DUP2 SLOAD DUP2 MSTORE SWAP1 PUSH1 0x1 ADD SWAP1 PUSH1 0x20 ADD DUP1 DUP4 GT PUSH2 0x3E0 JUMPI DUP3 SWAP1 SUB PUSH1 0x1F AND DUP3 ADD SWAP2 JUMPDEST POP POP POP POP POP DUP2 MSTORE PUSH1 0x20 ADD PUSH1 0x1 DUP3 ADD SLOAD DUP2 MSTORE POP POP DUP2 MSTORE PUSH1 0x20 ADD SWAP1 PUSH1 0x1 ADD SWAP1 PUSH2 0x351 JUMP JUMPDEST POP POP POP POP SWAP1 POP SWAP1 JUMP JUMPDEST PUSH1 0x2 PUSH1 0x20 MSTORE DUP1 PUSH1 0x0 MSTORE PUSH1 0x40 PUSH1 0x0 KECCAK256 PUSH1 0x0 SWAP2 POP SLOAD SWAP1 PUSH2 0x100 EXP SWAP1 DIV PUSH1 0xFF AND DUP2 JUMP JUMPDEST PUSH1 0x0 PUSH1 0x1 DUP1 SLOAD SWAP1 POP SWAP1 POP SWAP1 JUMP JUMPDEST PUSH1 0x1 DUP2 DUP2 SLOAD DUP2 LT PUSH2 0x465 JUMPI PUSH1 0x0 DUP1 REVERT JUMPDEST SWAP1 PUSH1 0x0 MSTORE PUSH1 0x20 PUSH1 0x0 KECCAK256 SWAP1 PUSH1 0x2 MUL ADD PUSH1 0x0 SWAP2 POP SWAP1 POP DUP1 PUSH1 0x0 ADD DUP1 SLOAD PUSH2 0x488 SWAP1 PUSH2 0xBED JUMP JUMPDEST DUP1 PUSH1 0x1F ADD PUSH1 0x20 DUP1 SWAP2 DIV MUL PUSH1 0x20 ADD PUSH1 0x40 MLOAD SWAP1 DUP2 ADD PUSH1 0x40 MSTORE DUP1 SWAP3 SWAP2 SWAP1 DUP2 DUP2 MSTORE PUSH1 0x20 ADD DUP3 DUP1 SLOAD PUSH2 0x4B4 SWAP1 PUSH2 0xBED JUMP JUMPDEST DUP1 ISZERO PUSH2 0x501 JUMPI DUP1 PUSH1 0x1F LT PUSH2 0x4D6 JUMPI PUSH2 0x100 DUP1 DUP4 SLOAD DIV MUL DUP4 MSTORE SWAP2 PUSH1 0x20 ADD SWAP2 PUSH2 0x501 JUMP JUMPDEST DUP3 ADD SWAP2 SWAP1 PUSH1 0x0 MSTORE PUSH1 0x20 PUSH1 0x0 KECCAK256 SWAP1 JUMPDEST DUP2 SLOAD DUP2 MSTORE SWAP1 PUSH1 0x1 ADD SWAP1 PUSH1 0x20 ADD DUP1 DUP4 GT PUSH2 0x4E4 JUMPI DUP3 SWAP1 SUB PUSH1 0x1F AND DUP3 ADD SWAP2 JUMPDEST POP POP POP POP POP SWAP1 DUP1 PUSH1 0x1 ADD SLOAD SWAP1 POP DUP3 JUMP JUMPDEST PUSH1 0x60 PUSH1 0x0 PUSH1 0x1 DUP1 SLOAD SWAP1 POP DUP4 LT PUSH2 0x55C JUMPI PUSH1 0x40 MLOAD PUSH32 0x8C379A000000000000000000000000000000000000000000000000000000000 DUP2 MSTORE PUSH1 0x4 ADD PUSH2 0x553 SWAP1 PUSH2 0xC6A JUMP JUMPDEST PUSH1 0x40 MLOAD DUP1 SWAP2 SUB SWAP1 REVERT JUMPDEST PUSH1 0x1 DUP4 DUP2 SLOAD DUP2 LT PUSH2 0x570 JUMPI PUSH2 0x56F PUSH2 0xAEF JUMP JUMPDEST JUMPDEST SWAP1 PUSH1 0x0 MSTORE PUSH1 0x20 PUSH1 0x0 KECCAK256 SWAP1 PUSH1 0x2 MUL ADD PUSH1 0x0 ADD PUSH1 0x1 DUP5 DUP2 SLOAD DUP2 LT PUSH2 0x595 JUMPI PUSH2 0x594 PUSH2 0xAEF JUMP JUMPDEST JUMPDEST SWAP1 PUSH1 0x0 MSTORE PUSH1 0x20 PUSH1 0x0 KECCAK256 SWAP1 PUSH1 0x2 MUL ADD PUSH1 0x1 ADD SLOAD DUP2 DUP1 SLOAD PUSH2 0x5B3 SWAP1 PUSH2 0xBED JUMP JUMPDEST DUP1 PUSH1 0x1F ADD PUSH1 0x20 DUP1 SWAP2 DIV MUL PUSH1 0x20 ADD PUSH1 0x40 MLOAD SWAP1 DUP2 ADD PUSH1 0x40 MSTORE DUP1 SWAP3 SWAP2 SWAP1 DUP2 DUP2 MSTORE PUSH1 0x20 ADD DUP3 DUP1 SLOAD PUSH2 0x5DF SWAP1 PUSH2 0xBED JUMP JUMPDEST DUP1 ISZERO PUSH2 0x62C JUMPI DUP1 PUSH1 0x1F LT PUSH2 0x601 JUMPI PUSH2 0x100 DUP1 DUP4 SLOAD DIV MUL DUP4 MSTORE SWAP2 PUSH1 0x20 ADD SWAP2 PUSH2 0x62C JUMP JUMPDEST DUP3 ADD SWAP2 SWAP1 PUSH1 0x0 MSTORE PUSH1 0x20 PUSH1 0x0 KECCAK256 SWAP1 JUMPDEST DUP2 SLOAD DUP2 MSTORE SWAP1 PUSH1 0x1 ADD SWAP1 PUSH1 0x20 ADD DUP1 DUP4 GT PUSH2 0x60F JUMPI DUP3 SWAP1 SUB PUSH1 0x1F AND DUP3 ADD SWAP2 JUMPDEST POP POP POP POP POP SWAP2 POP SWAP2 POP SWAP2 POP SWAP2 POP SWAP2 JUMP JUMPDEST PUSH1 0x0 DUP1 SLOAD SWAP1 PUSH2 0x100 EXP SWAP1 DIV PUSH20 0xFFFFFFFFFFFFFFFFFFFFFFFFFFFFFFFFFFFFFFFF AND DUP2 JUMP JUMPDEST PUSH1 0x0 DUP1 REVERT JUMPDEST PUSH1 0x0 DUP2 SWAP1 POP SWAP2 SWAP1 POP JUMP JUMPDEST PUSH2 0x678 DUP2 PUSH2 0x665 JUMP JUMPDEST DUP2 EQ PUSH2 0x683 JUMPI PUSH1 0x0 DUP1 REVERT JUMPDEST POP JUMP JUMPDEST PUSH1 0x0 DUP2 CALLDATALOAD SWAP1 POP PUSH2 0x695 DUP2 PUSH2 0x66F JUMP JUMPDEST SWAP3 SWAP2 POP POP JUMP JUMPDEST PUSH1 0x0 PUSH1 0x20 DUP3 DUP5 SUB SLT ISZERO PUSH2 0x6B1 JUMPI PUSH2 0x6B0 PUSH2 0x660 JUMP JUMPDEST JUMPDEST PUSH1 0x0 PUSH2 0x6BF DUP5 DUP3 DUP6 ADD PUSH2 0x686 JUMP JUMPDEST SWAP2 POP POP SWAP3 SWAP2 POP POP JUMP JUMPDEST PUSH1 0x0 DUP2 MLOAD SWAP1 POP SWAP2 SWAP1 POP JUMP JUMPDEST PUSH1 0x0 DUP3 DUP3 MSTORE PUSH1 0x20 DUP3 ADD SWAP1 POP SWAP3 SWAP2 POP POP JUMP JUMPDEST PUSH1 0x0 DUP2 SWAP1 POP PUSH1 0x20 DUP3 ADD SWAP1 POP SWAP2 SWAP1 POP JUMP JUMPDEST PUSH1 0x0 DUP2 MLOAD SWAP1 POP SWAP2 SWAP1 POP JUMP JUMPDEST PUSH1 0x0 DUP3 DUP3 MSTORE PUSH1 0x20 DUP3 ADD SWAP1 POP SWAP3 SWAP2 POP POP JUMP JUMPDEST PUSH1 0x0 JUMPDEST DUP4 DUP2 LT ISZERO PUSH2 0x72E JUMPI DUP1 DUP3 ADD MLOAD DUP2 DUP5 ADD MSTORE PUSH1 0x20 DUP2 ADD SWAP1 POP PUSH2 0x713 JUMP JUMPDEST PUSH1 0x0 DUP5 DUP5 ADD MSTORE POP POP POP POP JUMP JUMPDEST PUSH1 0x0 PUSH1 0x1F NOT PUSH1 0x1F DUP4 ADD AND SWAP1 POP SWAP2 SWAP1 POP JUMP JUMPDEST PUSH1 0x0 PUSH2 0x756 DUP3 PUSH2 0x6F4 JUMP JUMPDEST PUSH2 0x760 DUP2 DUP6 PUSH2 0x6FF JUMP JUMPDEST SWAP4 POP PUSH2 0x770 DUP2 DUP6 PUSH1 0x20 DUP7 ADD PUSH2 0x710 JUMP JUMPDEST PUSH2 0x779 DUP2 PUSH2 0x73A JUMP JUMPDEST DUP5 ADD SWAP2 POP POP SWAP3 SWAP2 POP POP JUMP JUMPDEST PUSH2 0x78D DUP2 PUSH2 0x665 JUMP JUMPDEST DUP3 MSTORE POP POP JUMP JUMPDEST PUSH1 0x0 PUSH1 0x40 DUP4 ADD PUSH1 0x0 DUP4 ADD MLOAD DUP5 DUP3 SUB PUSH1 0x0 DUP7 ADD MSTORE PUSH2 0x7B0 DUP3 DUP3 PUSH2 0x74B JUMP JUMPDEST SWAP2 POP POP PUSH1 0x20 DUP4 ADD MLOAD PUSH2 0x7C5 PUSH1 0x20 DUP7 ADD DUP3 PUSH2 0x784 JUMP JUMPDEST POP DUP1 SWAP2 POP POP SWAP3 SWAP2 POP POP JUMP JUMPDEST PUSH1 0x0 PUSH2 0x7DC DUP4 DUP4 PUSH2 0x793 JUMP JUMPDEST SWAP1 POP SWAP3 SWAP2 POP POP JUMP JUMPDEST PUSH1 0x0 PUSH1 0x20 DUP3 ADD SWAP1 POP SWAP2 SWAP1 POP JUMP JUMPDEST PUSH1 0x0 PUSH2 0x7FC DUP3 PUSH2 0x6C8 JUMP JUMPDEST PUSH2 0x806 DUP2 DUP6 PUSH2 0x6D3 JUMP JUMPDEST SWAP4 POP DUP4 PUSH1 0x20 DUP3 MUL DUP6 ADD PUSH2 0x818 DUP6 PUSH2 0x6E4 JUMP JUMPDEST DUP1 PUSH1 0x0 JUMPDEST DUP6 DUP2 LT ISZERO PUSH2 0x854 JUMPI DUP5 DUP5 SUB DUP10 MSTORE DUP2 MLOAD PUSH2 0x835 DUP6 DUP3 PUSH2 0x7D0 JUMP JUMPDEST SWAP5 POP PUSH2 0x840 DUP4 PUSH2 0x7E4 JUMP JUMPDEST SWAP3 POP PUSH1 0x20 DUP11 ADD SWAP10 POP POP PUSH1 0x1 DUP2 ADD SWAP1 POP PUSH2 0x81C JUMP JUMPDEST POP DUP3 SWAP8 POP DUP8 SWAP6 POP POP POP POP POP POP SWAP3 SWAP2 POP POP JUMP JUMPDEST PUSH1 0x0 PUSH1 0x20 DUP3 ADD SWAP1 POP DUP2 DUP2 SUB PUSH1 0x0 DUP4 ADD MSTORE PUSH2 0x880 DUP2 DUP5 PUSH2 0x7F1 JUMP JUMPDEST SWAP1 POP SWAP3 SWAP2 POP POP JUMP JUMPDEST PUSH1 0x0 PUSH20 0xFFFFFFFFFFFFFFFFFFFFFFFFFFFFFFFFFFFFFFFF DUP3 AND SWAP1 POP SWAP2 SWAP1 POP JUMP JUMPDEST PUSH1 0x0 PUSH2 0x8B3 DUP3 PUSH2 0x888 JUMP JUMPDEST SWAP1 POP SWAP2 SWAP1 POP JUMP JUMPDEST PUSH2 0x8C3 DUP2 PUSH2 0x8A8 JUMP JUMPDEST DUP2 EQ PUSH2 0x8CE JUMPI PUSH1 0x0 DUP1 REVERT JUMPDEST POP JUMP JUMPDEST PUSH1 0x0 DUP2 CALLDATALOAD SWAP1 POP PUSH2 0x8E0 DUP2 PUSH2 0x8BA JUMP JUMPDEST SWAP3 SWAP2 POP POP JUMP JUMPDEST PUSH1 0x0 PUSH1 0x20 DUP3 DUP5 SUB SLT ISZERO PUSH2 0x8FC JUMPI PUSH2 0x8FB PUSH2 0x660 JUMP JUMPDEST JUMPDEST PUSH1 0x0 PUSH2 0x90A DUP5 DUP3 DUP6 ADD PUSH2 0x8D1 JUMP JUMPDEST SWAP2 POP POP SWAP3 SWAP2 POP POP JUMP JUMPDEST PUSH1 0x0 DUP2 ISZERO ISZERO SWAP1 POP SWAP2 SWAP1 POP JUMP JUMPDEST PUSH2 0x928 DUP2 PUSH2 0x913 JUMP JUMPDEST DUP3 MSTORE POP POP JUMP JUMPDEST PUSH1 0x0 PUSH1 0x20 DUP3 ADD SWAP1 POP PUSH2 0x943 PUSH1 0x0 DUP4 ADD DUP5 PUSH2 0x91F JUMP JUMPDEST SWAP3 SWAP2 POP POP JUMP JUMPDEST PUSH2 0x952 DUP2 PUSH2 0x665 JUMP JUMPDEST DUP3 MSTORE POP POP JUMP JUMPDEST PUSH1 0x0 PUSH1 0x20 DUP3 ADD SWAP1 POP PUSH2 0x96D PUSH1 0x0 DUP4 ADD DUP5 PUSH2 0x949 JUMP JUMPDEST SWAP3 SWAP2 POP POP JUMP JUMPDEST PUSH1 0x0 DUP3 DUP3 MSTORE PUSH1 0x20 DUP3 ADD SWAP1 POP SWAP3 SWAP2 POP POP JUMP JUMPDEST PUSH1 0x0 PUSH2 0x98F DUP3 PUSH2 0x6F4 JUMP JUMPDEST PUSH2 0x999 DUP2 DUP6 PUSH2 0x973 JUMP JUMPDEST SWAP4 POP PUSH2 0x9A9 DUP2 DUP6 PUSH1 0x20 DUP7 ADD PUSH2 0x710 JUMP JUMPDEST PUSH2 0x9B2 DUP2 PUSH2 0x73A JUMP JUMPDEST DUP5 ADD SWAP2 POP POP SWAP3 SWAP2 POP POP JUMP JUMPDEST PUSH1 0x0 PUSH1 0x40 DUP3 ADD SWAP1 POP DUP2 DUP2 SUB PUSH1 0x0 DUP4 ADD MSTORE PUSH2 0x9D7 DUP2 DUP6 PUSH2 0x984 JUMP JUMPDEST SWAP1 POP PUSH2 0x9E6 PUSH1 0x20 DUP4 ADD DUP5 PUSH2 0x949 JUMP JUMPDEST SWAP4 SWAP3 POP POP POP JUMP JUMPDEST PUSH2 0x9F6 DUP2 PUSH2 0x8A8 JUMP JUMPDEST DUP3 MSTORE POP POP JUMP JUMPDEST PUSH1 0x0 PUSH1 0x20 DUP3 ADD SWAP1 POP PUSH2 0xA11 PUSH1 0x0 DUP4 ADD DUP5 PUSH2 0x9ED JUMP JUMPDEST SWAP3 SWAP2 POP POP JUMP JUMPDEST PUSH32 0x596F75206861766520616C726561647920766F7465642E000000000000000000 PUSH1 0x0 DUP3 ADD MSTORE POP JUMP JUMPDEST PUSH1 0x0 PUSH2 0xA4D PUSH1 0x17 DUP4 PUSH2 0x973 JUMP JUMPDEST SWAP2 POP PUSH2 0xA58 DUP3 PUSH2 0xA17 JUMP JUMPDEST PUSH1 0x20 DUP3 ADD SWAP1 POP SWAP2 SWAP1 POP JUMP JUMPDEST PUSH1 0x0 PUSH1 0x20 DUP3 ADD SWAP1 POP DUP2 DUP2 SUB PUSH1 0x0 DUP4 ADD MSTORE PUSH2 0xA7C DUP2 PUSH2 0xA40 JUMP JUMPDEST SWAP1 POP SWAP2 SWAP1 POP JUMP JUMPDEST PUSH32 0x496E76616C69642063616E64696461746520696E6465782E0000000000000000 PUSH1 0x0 DUP3 ADD MSTORE POP JUMP JUMPDEST PUSH1 0x0 PUSH2 0xAB9 PUSH1 0x18 DUP4 PUSH2 0x973 JUMP JUMPDEST SWAP2 POP PUSH2 0xAC4 DUP3 PUSH2 0xA83 JUMP JUMPDEST PUSH1 0x20 DUP3 ADD SWAP1 POP SWAP2 SWAP1 POP JUMP JUMPDEST PUSH1 0x0 PUSH1 0x20 DUP3 ADD SWAP1 POP DUP2 DUP2 SUB PUSH1 0x0 DUP4 ADD MSTORE PUSH2 0xAE8 DUP2 PUSH2 0xAAC JUMP JUMPDEST SWAP1 POP SWAP2 SWAP1 POP JUMP JUMPDEST PUSH32 0x4E487B7100000000000000000000000000000000000000000000000000000000 PUSH1 0x0 MSTORE PUSH1 0x32 PUSH1 0x4 MSTORE PUSH1 0x24 PUSH1 0x0 REVERT JUMPDEST PUSH32 0x4E487B7100000000000000000000000000000000000000000000000000000000 PUSH1 0x0 MSTORE PUSH1 0x11 PUSH1 0x4 MSTORE PUSH1 0x24 PUSH1 0x0 REVERT JUMPDEST PUSH1 0x0 PUSH2 0xB58 DUP3 PUSH2 0x665 JUMP JUMPDEST SWAP2 POP PUSH32 0xFFFFFFFFFFFFFFFFFFFFFFFFFFFFFFFFFFFFFFFFFFFFFFFFFFFFFFFFFFFFFFFF DUP3 SUB PUSH2 0xB8A JUMPI PUSH2 0xB89 PUSH2 0xB1E JUMP JUMPDEST JUMPDEST PUSH1 0x1 DUP3 ADD SWAP1 POP SWAP2 SWAP1 POP JUMP JUMPDEST PUSH1 0x0 PUSH1 0x40 DUP3 ADD SWAP1 POP PUSH2 0xBAA PUSH1 0x0 DUP4 ADD DUP6 PUSH2 0x949 JUMP JUMPDEST PUSH2 0xBB7 PUSH1 0x20 DUP4 ADD DUP5 PUSH2 0x9ED JUMP JUMPDEST SWAP4 SWAP3 POP POP POP JUMP JUMPDEST PUSH32 0x4E487B7100000000000000000000000000000000000000000000000000000000 PUSH1 0x0 MSTORE PUSH1 0x22 PUSH1 0x4 MSTORE PUSH1 0x24 PUSH1 0x0 REVERT JUMPDEST PUSH1 0x0 PUSH1 0x2 DUP3 DIV SWAP1 POP PUSH1 0x1 DUP3 AND DUP1 PUSH2 0xC05 JUMPI PUSH1 0x7F DUP3 AND SWAP2 POP JUMPDEST PUSH1 0x20 DUP3 LT DUP2 SUB PUSH2 0xC18 JUMPI PUSH2 0xC17 PUSH2 0xBBE JUMP JUMPDEST JUMPDEST POP SWAP2 SWAP1 POP JUMP JUMPDEST PUSH32 0x496E636F72726563742063616E64696461746520696E6465782E000000000000 PUSH1 0x0 DUP3 ADD MSTORE POP JUMP JUMPDEST PUSH1 0x0 PUSH2 0xC54 PUSH1 0x1A DUP4 PUSH2 0x973 JUMP JUMPDEST SWAP2 POP PUSH2 0xC5F DUP3 PUSH2 0xC1E JUMP JUMPDEST PUSH1 0x20 DUP3 ADD SWAP1 POP SWAP2 SWAP1 POP JUMP JUMPDEST PUSH1 0x0 PUSH1 0x20 DUP3 ADD SWAP1 POP DUP2 DUP2 SUB PUSH1 0x0 DUP4 ADD MSTORE PUSH2 0xC83 DUP2 PUSH2 0xC47 JUMP JUMPDEST SWAP1 POP SWAP2 SWAP1 POP JUMP INVALID LOG2 PUSH5 0x6970667358 0x22 SLT KECCAK256 0xDA LOG4 PUSH28 0xC136C3D7287BAA30F468E14E78AEA944EF05CC2D863C31CB06795E24 0xFC PUSH5 0x736F6C6343 STOP ADDMOD GT STOP CALLER "},"methodIdentifiers":{"candidates(uint256)":"3477ee2e","getCandidate(uint256)":"35b8e820","getCandidateCount()":"30a56347","getCandidates()":"06a49fce","hasVoted(address)":"09eef43e","owner()":"8da5cb5b","vote(uint256)":"0121b93f"}}}}}